:020000040800F2
:10C0000080C9012059C20008E762010815350108FE
:10C01000E55D010805D1000845AB010800000000FE
:10C020000000000000000000000000009DC10008AA
:10C03000C9D7000800000000F1C10008759301088D
:10C0400073C2000873C2000873C2000873C20008FC
:10C0500073C2000873C2000873C2000873C20008EC
:10C0600073C2000873C2000873C2000873C20008DC
:10C0700073C2000873C2000873C2000873C20008CC
:10C0800073C2000873C2000873C2000873C20008BC
:10C0900073C2000873C2000873C20008F5E6000806
:10C0A00073C2000873C2000873C2000873C200089C
:10C0B00073C2000873C2000873C2000873C200088C
:10C0C00073C2000873C2000873C2000873C200087C
:10C0D00073C2000801A50108ADA5010881A60108E9
:10C0E00073C2000873C2000873C2000873C200085C
:10C0F00073C2000873C2000873C2000873C200084C
:10C1000073C200084572010873C2000873C20008B8
:10C1100073C2000873C20008019E010873C20008C0
:10C1200073C2000873C2000873C2000873C200081B
:10C1300073C2000819E1000873C2000873C2000846
:10C1400073C2000873C2000873C2000873C20008FB
:10C1500073C2000873C2000873C2000873C20008EB
:10C1600073C2000873C2000873C2000873C20008DB
:10C1700073C200082D63010873C2000800000000AC
:10C1800073C2000873C20008DFF80CD000F03EFC58
:10C1900000480047BD23020880C901202B4B1968C5
:10C1A0000868B0E8F04F80F30988BFF36F8F4FF055
:10C1B000000080F311887047000000000648006806
:10C1C000006880F3088862B661B6BFF34F8FBFF393
:10C1D0006F8F00DF00BF00BF08ED00E0DFF80C004C
:10C1E000016841F470010160704700BF88ED00E014
:10C1F000EFF30980BFF36F8F144B1A681EF0100F16
:10C2000008BF20ED108A20E9F04F106008B44FF00D
:10C21000500080F31188BFF34F8FBFF36F8F1BF077
:10C22000DFFB4FF0000080F3118808BC1968086834
:10C23000B0E8F04F1EF0100F08BFB0EC108A80F38A
:10C240000988BFF36F8F704700BF00BF0400002054
:10C25000EFF3058070470000064880470648004716
:10C26000FEE7FEE7FEE7FEE7FEE7FEE7FEE7FEE7A6
:10C27000FEE7FEE76194010889C1000840EA010376
:10C280009B0703D009E008C9121F08C0042AFAD28C
:10C2900003E011F8013B00F8013B521EF9D2704750
:10C2A000D2B201E000F8012B491EFBD270470022F8
:10C2B000F6E710B513460A4604461946FFF7F0FFA5
:10C2C000204610BD421E12F8013F002BFBD111F891
:10C2D000013B02F8013B002BF9D1704730B5054610
:10C2E0002A460B4612F8010B13F8014B08B1A04285
:10C2F000F8D01CB1002802D06D1CF1E7284630BDF3
:10C3000010B5044604E00B7800F8013B03B1491C6A
:10C31000521EF8D2204610BDCAB2401E10F8011FAE
:10C320008A4202D00029F9D100207047421C10F83F
:10C33000011B0029FBD1801A704710B5002200E0D4
:10C34000521C835C8C5CA34201D1002BF8D1D8B283
:10C35000E1B2401A10BD30B504460020034600E0AB
:10C360005B1C934203D2E05CCD5C401BF8D030BD37
:10C37000034611F8012B00F8012B002AF9D11846C9
:10C38000704730B505460020034600E05B1C934231
:10C3900005D2EC5CC85C201A01D1002CF6D130BD6E
:10C3A00070B500B91068002512E00B4602E0A64205
:10C3B00003D05B1C1C78002CF9D1E3B22B4305D0D1
:10C3C0002CB125B1002100F8011B04E00546401CFA
:10C3D0000678002EE9D11060284670BD004ADFE7DC
:10C3E000900500202DE9F0410E460546002400E0AE
:10C3F000641C285D00F08EF80746305D00F08AF876
:10C40000381A02D1295D0029F2D1BDE8F08170B55A
:10C4100006460FF03BF8046805460A220021304624
:10C4200000F0CCF82C6070BD00F0004230F000400D
:10C430000AD0C10D01F56071C0F3160042EA015146
:10C44000C20840071143704700200146704701F0C1
:10C45000004330B421F0004150EA010206D00A0D39
:10C46000A2F56072C1F31301002A02DC30BC002087
:10C470007047440F44EAC104C100E01830BC00EB2F
:10C48000C25000F0D3B830B50B4601460020202240
:10C49000012409E021FA02F59D4205D303FA02F5D1
:10C4A000491B04FA02F52844151EA2F10102F1DC31
:10C4B00030BD2DE9F05F0546002092469B46884638
:10C4C0000646814640241BE0284641464746224610
:10C4D00000F0BDFA53465A46C01A914110D3114696
:10C4E0001846224600F0A4FA2D1A67EB01084F46C1
:10C4F00022460120002100F09BFA17EB00094E4173
:10C50000201EA4F10104DFDC484631462A4643469A
:10C51000BDE8F09FA0F14101192900D820307047F3
:10C520000FB4002300B589B00CA900910B996FF0EE
:10C530000042CB601E4B06931E4B07930423CDE9AC
:10C5400001321D4A089202466B46002000F030FB83
:10C5500009B05DF814FB70B586B006464FF0FF30A9
:10C560000091CDE90101002015460C4604903246A9
:10C57000694604A8FFF7D4FF03460498211825B1A3
:10C5800008B10A4600E022462A6000280DD0002BA0
:10C5900002DD0098884208D0081B0094CDE9010410
:10C5A0003246694604A8FFF7BBFF06B070BD000025
:10C5B000E9CD000807CE00089DCA00082DE9F04724
:10C5C00091460F4680460446002614F8015B2DB1C3
:10C5D00000F060FA0068405DC007F6D12B2D02D054
:10C5E0002D2D18D0641E4A463946204600F01CFC0A
:10C5F00027B13968A14201D1C7F8008071054FF019
:10C6000002040BD54042002803DD0EF03FFF04601A
:10C61000A007BDE8F08746F48066E4E70028F8DA72
:10C620000EF034FF04606FF00040F2E70029A8BF6D
:10C630007047401C490008BF20F00100704710B44B
:10C64000B0FA80FC00FA0CF050EA010404BF10BC00
:10C65000704749B1CCF1200421FA04F411FA0CF12D
:10C6600018BF012121430843A3EB0C01CB1D4FEA66
:10C6700000614FEA102042BF002010BC704700EB61
:10C68000C35010440029A4BF10BC7047401C49008F
:10C6900008BF20F0010010BC70472DE9FE4F804616
:10C6A00081EA0300C00F0C46009021F0004123F006
:10C6B0000045B8EB0200A94105D24046214690460C
:10C6C0001C460B46024623F00040104347D0270D7E
:10C6D000C7F30A00C3F30A510290401A01904028A0
:10C6E0006BDAC3F3130040F4801B0098924620B12C
:10C6F0000023D2EB030A63EB0B0B01985946C0F100
:10C700004002504600F094F906460D465046594600
:10C71000019A00F0ACF910EB08006141002487EAAF
:10C72000115284EAE7731A4340D0009A62B3019A27
:10C73000012A4FEA075215DC001B61EB02014FF0A2
:10C74000004202EA0752CDE90042001C41F5801187
:10C7500032462B4600F0C6FB03B0BDE8F08F4046E2
:10C760002146F9E7001B61EB0201001C41F5801333
:10C7700000185B412018A2F5001747EB030140EABF
:10C78000D570B6196D4111E06D084FEA360645EADD
:10C79000C0754FEA0752001B61EB0201001C41F516
:10C7A000801149084FEA30000019514132462B46AA
:10C7B00003B0BDE8F04F00F086BB009801224000B6
:10C7C0000023D0EB020263EBE073009821464FEAAE
:10C7D000E074B8EB000061EB0401E9E783F000438B
:10C7E0005BE781F0004158E72DE9FE4F81EA030441
:10C7F00004F0004421F0004100944FF0000B23F0BE
:10C80000004350EA01045ED052EA03045BD0C3F354
:10C810000A54C1F30A552C44A4F2F3340194A0FB4A
:10C820000254C1F3130141F48011C3F3130343F421
:10C83000801301FB024400FB034E840A970A44EA7A
:10C84000815447EA8357A4FB076802958D0A05FBCC
:10C8500007854FEA932C04FB0C542705029D4FEAF1
:10C86000065847EA1637B5EB08056EEB070C870E3E
:10C87000920E47EA811742EA8312A7FB0201B6EB48
:10C880000B0164EB00042B0D43EA0C335E1844EB00
:10C890001C50DA465146E7FB0201C5F313044FEA88
:10C8A0000B3343EA14534FEA0432019C43EA060374
:10C8B000A4F10C040294009CCDE900B400F012FB3A
:10C8C00003B0BDE8F08F00200146F9E72DE9F04DF7
:10C8D00081EA030404F0004B21F0004514464FF0B8
:10C8E000000A23F0004150EA050220D054EA010278
:10C8F0001DD0C5F30A570246C5F31303C1F3130055
:10C90000C1F30A5640F4801543F48013A7EB0608E0
:10C91000101BD64608F2FD3873EB050002D308F170
:10C92000010801E092185B41B8F1000F03DA002022
:10C930000146BDE8F08D00204FF480110646844684
:10C940000EE0171B73EB050705D3121B63EB050302
:10C9500006434CEA010C49084FEA300092185B414B
:10C9600050EA0107EDD152EA030012D082EA040036
:10C9700083EA0501084305D0101BAB4106D2012212
:10C98000002306E000224FF0004302E06FF00102B6
:10C9900053101AEB06004CEB085110EB0A0041EB68
:10C9A0000B01BDE8F04D00F08EBAC1F30A52C1F39D
:10C9B000130140F2FF3341F480119A4202DA002061
:10C9C0000146704740F233439A42A2F2334202DCFE
:10C9D000524200F03CB800F02BB8000030B5041E05
:10C9E00071F1000404DB4FF00044404264EB0101AC
:10C9F000141E73F1000405DB1C464FF00043524245
:10CA000063EB0403994208BF904230BD064C074DCA
:10CA100006E0E06840F0010394E80700984710340E
:10CA2000AC42F6D3FFF7B4FB98F40708B8F4070854
:10CA3000202A04DB203A00FA02F1002070479140DE
:10CA4000C2F1200320FA03F3194390407047202AD3
:10CA500004DB203A21FA02F00021704721FA02F3A8
:10CA6000D040C2F120029140084319467047202A65
:10CA700006DBCB17203A41FA02F043EAE07306E006
:10CA800041FA02F3D040C2F1200291400843194616
:10CA900070470000004870471C77070810B504462F
:10CAA000FFF7F8FF0068005D00F0010010BD000016
:10CAB0002DE9FF4F087881B09946FF2805D0491C21
:10CAC0002D2804D00024002308E000230BE00124DB
:10CAD000F9E703EB830300EB4303491C0878FF28C5
:10CAE000F7D104B15B4200200090147801462D2C50
:10CAF00001D02B2C04D1521C2D2C12D000240094D8
:10CB000000251678FF2E0ED00A24A0FB04C801FBD6
:10CB10000481002700FB0711521C16EB0C00694131
:10CB2000EFE70124EBE7994450EA01020ED000241C
:10CB3000AA4D2646DFF8A88200F030FA82468B46DE
:10CB4000B9F1000009DAC9F100071BE001980021E2
:10CB5000C0E9001105B0BDE8F08F074612E0F80704
:10CB600007D022462B4630464146FFF73DFE06469B
:10CB7000884622462B4610461946FFF735FE0446E6
:10CB80000D467F10002FEAD1B9F1000F324643461F
:10CB90005046594602DAFFF799FE01E0FFF724FEFE
:10CBA000009A0AB181F00041019AC2E90001D1E77F
:10CBB0002DE9FF4F1F468DB0D7E901464FF0FF38F2
:10CBC0002E2045464FF000090B90B9696D1C0E9858
:10CBD0008847396A824688470028F6D1BAF1FF3F74
:10CBE0000AD024F4D064002E11DDBAF12B0F08D046
:10CBF000BAF12D0F0BD102E0404611B0ABE744F47F
:10CC00008064B9696D1C0E9888478246761E694615
:10CC1000600501D52D2000E02B208DF8000001F1EA
:10CC2000010B0DF1200809E0B9696D1C0E988847C9
:10CC300082460F9844F40074761E0560002E02DDD3
:10CC4000BAF1300FF0D00B998A453ED144F0800400
:10CC500006E00F99681CA9F1010944F4007408600A
:10CC6000B9696D1C761E0E98884782463028F0D030
:10CC70002BE00B998A4505D1200603D444F08004AB
:10CC8000761E18E050460EF0F1FC08B30DF11301CA
:10CC9000761E44F400748B4508D2AAF130000BF8DC
:10CCA000010B200607D5A9F1010003E0200602D4FC
:10CCB00009F101008146A00502D50F99681C0860A2
:10CCC000B9696D1C0E9888478246002ED1DC53E06E
:10CCD000002E51DDBAF1650F02D0BAF1450F4BD1EC
:10CCE000A00549D5B9696D1C24F44074761E0E98D0
:10CCF00088478246002E0CDD2B2804D0BAF12D0F78
:10CD000007D144F48074B9696D1C0E988847824637
:10CD1000761EE00501D52D2100E02B2108F8011B2E
:10CD2000CDF82C8021E00DF12901761E44F4007429
:10CD300088450CD2AAF1300010F0FF0088F80000FE
:10CD400002D10B99884509D908F1010806E0E005F0
:10CD500001D5244801E042F20F708146B9696D1C8B
:10CD60000E98884782460F980560002E04DD5046D5
:10CD70000EF07CFC0028D6D1F9690E988847FF2078
:10CD80008BF8000088F800000020069007904B46C2
:10CD90006A4608A906A8FFF78BFEA00502D46FF02B
:10CDA00001002AE714F0240F0AD0E00714D1DDE9CE
:10CDB00006123868031D3B600068C0E900120BE0F2
:10CDC000DDE90601FFF743FB0146E00704D13868BF
:10CDD000021D3A600068016028460EE7000024400A
:10CDE0000000F03FF1D8FFFF426842B1016811F83E
:10CDF000013B23B1521EC0E90012184670470121C1
:10CE0000C160881E704742685AB1C368016843B95F
:10CE100083688B4205D0491E521CC0E900120020D5
:10CE200070474FF0FF3070472DE9F05F8246007881
:10CE3000002715468B460AF10104B946302801D077
:10CE40009DB113E014F8010B0127782803D058286E
:10CE500001D045B10AE00DB1102D07D100271025F2
:10CE600014F8010B02E0082500E00A250026B04670
:10CE70000EE005FB080005FB06F1012701EB10465B
:10CE80001FFA80F8B6F5803F00D3B94614F8010BBD
:10CE9000294600F075F80028EBDABBF1000F05D049
:10CEA0000FB1641E00E05446CBF80040B9F1000F0A
:10CEB00006D00EF0EBFA02210160C81EBDE8F09F1B
:10CEC00048EA0640FAE710B5141E73F1000408DAC8
:10CED000401C41F1000192185B411A4301D120F03E
:10CEE000010010BD2DE9F04D92469B4611B1B1FAFB
:10CEF00081F202E0B0FA80F220329046FFF798FD0E
:10CF000004460F4640EA0A0041EA0B0153465A46DE
:10CF1000084313D0114653EA010019D0C8F140026A
:10CF20005046FFF794FD05460E4650465946424688
:10CF3000FFF77EFD084305D0012004E02046394676
:10CF4000BDE8F08D0020054346EAE0762C433743E8
:10CF50000A986305E40AA0EB08000022FD0A44EAEF
:10CF600047540A3002D500200146E9E701051019AF
:10CF70006941DDE9084500196941BDE8F04DA2E7C6
:10CF80003A2800D2303820F02002412A01D3A2F101
:10CF90003700884201D34FF0FF3070470EB540F2A2
:10CFA000334202920022CDE900221346FFF79AFF96
:10CFB00003B000BD70B58C1810F8015B15F00703C5
:10CFC00001D110F8013B2A1106D110F8012B03E022
:10CFD00010F8016B01F8016B5B1EF9D12B0705D42A
:10CFE0000023521E0DD401F8013BFAE710F8013B73
:10CFF000CB1A921C03E013F8015B01F8015B521E8F
:10D00000F9D5A142D8D3002070BD0000F8B507467D
:10D01000124CE069FFF78AF90025024600950123CA
:10D020003846E16915F040FEE06EFFF77FF90246F1
:10D03000009501233846E16E15F036FE084E307833
:10D0400003280AD1A069FFF771F902460095012370
:10D050003846A16915F028FE3570F8BD740100202E
:10D060003C0100200146014805F0E6B8D406012045
:10D0700010B5044805F0F2F8042801D0012010BDD5
:10D08000002010BDD406012010B500F015F80128CD
:10D0900001D0012010BD074805F0C2F9044634B99B
:10D0A0004FF40061034804F086FF00B101242046DC
:10D0B00010BD0000D406012008B5012000909DF8A5
:10D0C000000008BD38B50024009313460A46014607
:10D0D000034805F035FA00B10124204638BD0000B0
:10D0E000D406012038B50024009313460A460146B1
:10D0F000034805F021FB00B10124204638BD0000A3
:10D10000D4060120FEE7000070B54FF6FF71002342
:10D110000B4D4AF201040CE0EA5C51400022CE07BC
:10D1200002D084EA510100E04908521C082AF6D3D3
:10D130005B1C8342F0D3421C2954080AA85470BDDA
:10D140001BAD012070B54FF6FF7200244AF20105B5
:10D150000EE0035D5A400023D60702D085EA520252
:10D1600000E052085B1CDBB2082BF5D3641CA4B2B0
:10D170008C42EED34B1C4254110AC15470BD0000C6
:10D1800010B506A000F03AFB00F080FB002803D0A9
:10D19000BDE8104000F0B8BD10BD0000626F6F74B4
:10D1A0002E62696E00000000FEB5044604F25C5079
:10D1B0006178002902D0012904D00EE09FA10EF071
:10D1C0003FF90AE0E17AA289A37ACDE9003102921F
:10D1D000637A227AA3A10EF033F92078C4F85405BB
:10D1E00004F21950C4F810053221FFF760F8C82185
:10D1F00004F22470FFF75BF8002584F8EC5784F8FC
:10D20000ED57C82104F67E10FFF751F884F8465A0E
:10D2100084F8475AA07B032829D104F17A000646F6
:10D22000FFF784F818B304F29451304609F084F8FB
:10D2300084F8ED07002116E004EB8103B3F89405B0
:10D240000BE094F8EC2704EB4202A2F8240794F8D0
:10D25000EC27521C84F8EC27401CB3F89625521C8E
:10D260008242EEDC491C94F8ED078842E4DC00239E
:10D2700042E0002004EB430227793AE004EB80010E
:10D28000B2F82467B1F862C4664531D3B1F864C41A
:10D2900066452DD804EB8000B0F86474B1F86204E0
:10D2A000A7EB000C0CF1010CBCF1010F0DDC11E03F
:10D2B000B2F82477874207D1864205D1761CA1F8BF
:10D2C0006464A679761CA671401CB1F86464864239
:10D2D000EEDA10E00FD1B2F82427BA420BD1864221
:10D2E00009D17F1CA1F86474A079401CA07102E0F0
:10D2F000401C8742C2DC5B1C94F8EC079842B8DC07
:10D30000E07B042829D104F5D3700646FFF70EF818
:10D3100018B304F2EE71304609F00EF884F8470AAB
:10D32000002116E004EB8103B3F8EE070BE094F85C
:10D33000462A04EB4202A2F87E0994F8462A521CBF
:10D3400084F8462A401CB3F8F027521C8242EEDCD7
:10D35000491C94F8470A8842E4DC002342E000209C
:10D3600004EB430267793AE004EB8001B2F87E698E
:10D37000B1F8B2C4664531D3B1F8B4C466452DD80E
:10D3800004EB8000B0F8B474B1F8B204A7EB000C61
:10D390000CF1010CBCF1010F0DDC11E0B2F87E794B
:10D3A000874207D1864205D1761CA1F8B464E6799C
:10D3B000761CE671401CB1F8B4648642EEDA10E0E7
:10D3C0000FD1B2F87E29BA420BD1864209D17F1C17
:10D3D000A1F8B474E079401CE07102E0401C87427F
:10D3E000C2DC5B1C94F8460A9842B8DCA079E1796B
:10D3F0000844C4F85805608AC4F8900501272774CA
:10D4000084F81855C4F814554FF40B7016F0BEFD8F
:10D41000C4F814051D4E707900280ED10220CDE904
:10D420000005420223461AA11A481AF09DFD012860
:10D4300003D1322015F046FD7771FEBD4164617065
:10D440007465723B22313B3B434F4D313B313135AB
:10D450003230303B303B313B383B35303B35303B75
:10D4600035302200416461707465723B22303B3B71
:10D4700025642E25642E25642E25643B25643B34CB
:10D480003530303B34353030220000005C03002062
:10D490004C4F470049AB01082DE9FF5F05460021CD
:10D4A000DFF8D0A200264FF001089AF80020002AE9
:10D4B0007ED00024B04F35E157F8240095F801C024
:10D4C0004378634575D1037895F800C06345F9D179
:10D4D000037A95F802C06345F4D1437A95F803C006
:10D4E0006345EFD1837A95F804C06345EAD1C07AE9
:10D4F0006B799842E6D1297A05F1410003903338DF
:10D50000DFF878924FF0030B0290032903D0687A7A
:10D5100004287CD0FCE057F8240080F80EB057F8BF
:10D52000240040F26241027901EB82010144029839
:10D5300008F002FF014657F82400027911440171F6
:10D5400057F824008671002040F2624240F2644E97
:10D550000EE00EEB800302EB800CCB5C11F80CC0EC
:10D56000A3EB0C0391F806C05B1C63448B71401C59
:10D5700057F824100B798342EBDC57F82400143061
:10D58000FEF7D4FE28B157F824007DA11430FEF731
:10D5900099FE57F8240002991430FEF793FE57F8CD
:10D5A00024007A30FEF7C2FE40B157F8240001E0B3
:10D5B000BBE0B6E07A3072A1FEF784FE57F8240093
:10D5C00003997A30FEF77EFE57F82400017C41B9BA
:10D5D000A97A012905D180F8108057F82400FFF7B7
:10D5E000E3FD57F82400007C012813D142F21071AA
:10D5F000D9F8000015F0C4FD57F8240080F810B0E9
:10D6000057F82400FFF7D0FDD9F8000000E002E051
:10D6100015F08EFD7CE057F824100420C87357F8ED
:10D62000240040F2B241427901EB820101440298A8
:10D6300008F082FE014657F82400427911444171F6
:10D6400057F82400C671002040F2B24240F2B44EB6
:10D650000EE00EEB800302EB800CCB5C11F80CC0EB
:10D66000A3EB0C0391F807C05B1C6344CB71401C17
:10D6700057F824104B798342EBDC57F824004730ED
:10D68000FEF754FE28B157F824003DA14730FEF7BD
:10D6900019FE57F8240002994730FEF713FE57F899
:10D6A000240000F5D370FEF741FE30B157F8240096
:10D6B00033A100F5D370FEF705FE57F82400039957
:10D6C00000F5D370FEF7FEFD57F82400017C41B948
:10D6D000A97A012905D180F8108057F82400FFF7B6
:10D6E00063FD57F82400007C012811D142F210712B
:10D6F000D9F8000015F044FD57F8240080F810B068
:10D7000057F82400FFF750FDD9F8000015F010FD80
:10D710001C48006818B11C48006815F009FD01217B
:10D7200003E0641C9442FFF6C7AE4FF4407481B925
:10D73000687810B1012804D00BE0284607F016FEE7
:10D7400007E000962B46224610A1134801961AF0D6
:10D750000BFC9AF80100002809D18AF80180CDE974
:10D7600000862B4622460DA10E481AF0FDFBBDE8AF
:10D77000FF9F00005C03002040B601200001002054
:10D780002C00000098000020180100204D627573E5
:10D790004D544350000000009D4E0108506C616ED6
:10D7A00065720000FD4C01081CB50021009101913B
:10D7B000034600F14B014FF4C07202481AF0D4FB4B
:10D7C0001CBD0000FDE600087047000010B507A46E
:10D7D0002046FEF7ABFD014620460AF0F9FFBDE802
:10D7E00010404FF4FA7015F06DBB000061742B63AC
:10D7F0006D67643D33302C330000000070B586B097
:10D800000646142101A8FEF752FD64250024324685
:10D8100013A101A80DF014FE01A8FEF787FD014633
:10D8200001A80AF0D5FF4FF47A7015F04BFB3220B7
:10D8300015F048FB641CE4B210A11148FEF74EFD40
:10D8400010B1012006B070BD0EA10D48FEF746FDD7
:10D8500008B10020F6E7AC42E9D90220F2E7000067
:10D8600041545E534653413D2272656D6F76652289
:10D870002C2022613A2F2573220000004F4B00001C
:10D88000389D01204552524F520000002DE9F04FC3
:10D89000ADF6641D0FF2B4186FA472A6734F002585
:10D8A00073A101A8FEF764FD77A11AA8FEF760FD39
:10D8B0007BA133A8FEF75CFD7FA14CA8FEF758FDC5
:10D8C00083A165A8FEF754FD87A17EA8FEF750FD51
:10D8D0008BA197A8FEF74CFD8FA1B0A8FEF748FDDD
:10D8E00094A1C9A8FEF744FD99A1E2A8FEF740FD66
:10D8F0009DA1FBA8FEF73CFDA8A10DF58A60FEF7EF
:10D9000037FDACA10DF2B440FEF732FDB0A10DF52C
:10D91000A360FEF72DFDB5A10DF27C50FEF728FDAA
:10D92000BAA10DF5BC60FEF723FDC0A10DF2446065
:10D93000FEF71EFDC5A10DF5D560FEF719FDC9A1C5
:10D940000DF20C70FEF714FDCDA10DF5EE60FEF7A3
:10D950000FFD0DF2D470D1A18246FEF709FD0DF541
:10D960001060D1A18346FEF703FD4046FEF7DEFCC2
:10D97000014640460AF02CFF4FF4FA78404615F075
:10D98000A1FA2046FEF7D2FC014620460AF020FF0D
:10D99000404615F097FA3046FEF7C8FC014630467F
:10D9A0000AF016FF07240DF10409C82015F08AFAC1
:10D9B00004EBC40000EB041009EB80063046FEF7D0
:10D9C000B5FC014630460AF003FF641C142CECDB66
:10D9D0004FF47A76304615F075FA5046FEF7A6FCFD
:10D9E000014650460AF0F4FE404615F06BFA6D1CF5
:10D9F000B0A1B848FEF772FC20B9B7A1B548FEF750
:10DA00006DFC30B1BCA1B348FEF768FC08B101243D
:10DA100009E0BBA1AF48FEF761FC08B1002402E0B9
:10DA2000BD42E1D90224304615F04CFA5846FEF7C3
:10DA30007DFC014658460AF0CBFE304615F042FA0E
:10DA40000DF6641D2046BDE8F08F000061742B6365
:10DA50006D67663D3100000061742B636D65653D47
:10DA6000310000004154453000000000C0D40100E6
:10DA700061745E736963733D352C636F6E547970A6
:10DA8000652C47505253300061745E736963733D77
:10DA9000352C61706E2C696E7465726E6574000051
:10DAA00061745E736963733D352C646E73312C3819
:10DAB0002E382E382E38000061745E736963733D12
:10DAC000352C757365722C67646174610000000009
:10DAD00061745E736963733D352C70617373776431
:10DAE0002C6764617461000061745E736963733DE7
:10DAF000352C616C7068616265742C300000000028
:10DB000061745E736963733D352C696E616374542F
:10DB10004F2C32300000000061745E736973733DF6
:10DB2000352C2273727654797065222C22467470DB
:10DB30002200000061745E736973733D352C2261AD
:10DB40006C706861626574222C2231220000000032
:10DB500061745E736973733D352C22636F6E496423
:10DB6000222C22352200000061745E736973733DBC
:10DB7000352C2261646472657373222C2266747082
:10DB80003A2F2F39322E35332E39362E3230332F6D
:10DB90006E69722F526567220000000061745E7327
:10DBA0006973733D352C227463704D52222C2233DD
:10DBB0002200000061745E736973733D352C22741A
:10DBC00063704F54222C223330303022000000008A
:10DBD00061745E736973733D352C227573657222AF
:10DBE0002C226E707074696B2200000061745E7389
:10DBF0006973733D352C22706173737764222C2214
:10DC0000367A484A75516B372200000061745E73A2
:10DC10006973733D352C2270617468222C22666909
:10DC20006C653A2F2F2F613A2F22000061745E73CA
:10DC30006973733D352C2266696C6573222C2262F0
:10DC40006F6F742E62696E220000000061745E7353
:10DC50006973733D352C22636D64222C22666765DF
:10DC60007422000061745E736973733D352C226603
:10DC7000744D6F6465222C2262696E2200000000E0
:10DC800061745E736973733D352C2268634D6574EE
:10DC9000686F64222C2230220000000061745E73E1
:10DCA00069736F3D3500000061745E736973633D95
:10DCB000350000005349533A20352C302C32313096
:10DCC000302C22464745543A20626F6F742E6269A9
:10DCD0006E220000389D01205349533A20352C30E4
:10DCE0002C323130302C226667657420626F6F747D
:10DCF0002E62696E22000000476F6F6462796500D2
:10DD00004552524F520000002DE9F04FADF2344D14
:10DD10004FF40078414601A8FEF7C9FA30A010F090
:10DD2000C1FD0446002C59D02DA010F005FE00289E
:10DD300052D0650A684204EB4026DFF8B09044F602
:10DD4000206A5146D9F8000015F01AFA19F0EAFBDA
:10DD50000A2223A182A810F093F8044619F0F0FBE0
:10DD6000D9F8000015F0E4F934B110F067FD002097
:10DD70000DF2344DBDE8F08F00246F1C1FE0AC4263
:10DD800001D1B34600E0C346594601A810F018FE81
:10DD90005146D9F8000015F0F3F919F0C3FB81AB37
:10DDA0005A4601A982A810F0C8FB82A810F0FEFA1A
:10DDB00019F0C6FBD9F8000015F0BAF9641CBC4292
:10DDC000DDD319F0AFFB82A80FF0D0FC19F0B8FB3F
:10DDD00010F034FD0120CBE70020C9E70020C7E7A1
:10DDE000626F6F742E62696E0000000000010020F7
:10DDF000F0B5ADF2546D06460024029403940494E9
:10DE000040F2DC5529461EA8FEF751FA464FF86944
:10DE1000FEF78CFA0246009401233046F96914F0AB
:10DE200043FF786AFEF782FA0246009401233046E7
:10DE3000796A14F039FF1E213C48FEF738FA1D229A
:10DE40003B493A48FEF71AFA0020384A5F21135C32
:10DE500003B91154401C1D28F9DB38A19FED350B87
:10DE600002A853EC102B0DF0EBFA02A91EA8FEF746
:10DE700029FA34A11EA8FEF725FA3FA11EA8FEF735
:10DE800021FA1EA8FEF752FA1EA9084415F0CFF990
:10DE900047A11EA8FEF716FA53491EA8FEF712FA6C
:10DEA00019F0F0FD02464FF4803350A105A80DF0A3
:10DEB000C7FA05A91EA8FEF705FA5AA105A80DF094
:10DEC000BFFA05A91EA8FEF7FDF92BA11EA8FEF7B3
:10DED000F9F91EA8FEF72AFA024601231EA93046C8
:10DEE000009414F0E1FE29461EA8FEF7E0F91EA8F2
:10DEF00019F022FC58A11EA8FEF7E4F90B491EA850
:10DF0000FEF7E0F959A11EA8FEF7DCF91EA8FEF7FE
:10DF10000DFA024601231EA93046009414F0C4FEF7
:10DF20000DF2546DF0BD000074010020C24B0120C1
:10DF3000389D01200000002085EBF13F20252E3286
:10DF4000660000003C7072653E3C62723E4E616D40
:10DF5000652020202020202020202053746174651B
:10DF600020205072696F7269747920205374616344
:10DF70006B2020204E756D003C62723E2D2D2D2DA4
:10DF80002D2D2D2D2D2D2D2D2D2D2D2D2D2D2D2DC1
:10DF90002D2D2D2D2D2D2D2D2D2D2D2D2D2D2D2DB1
:10DFA0002D2D2D2D2D2D2D2D2D3C62723E0000008E
:10DFB0003C62723E3C62723E2D2D2D2D2D2D2D2D5D
:10DFC0002D2D2D2D2D2D2D2D2D2D2D2D2D2D2D2D81
:10DFD0002D2D2D2D2D2D2D2D2D2D2D2D2D2D2D2D71
:10DFE0002D2D2D2D2D000000B4D407084672656537
:10DFF00020486561702053697A65286279746529C3
:10E00000202F20486561702053697A6528627974F1
:10E0100065293A202564202F2025643C62723E3C0D
:10E0200062723E003C7072653E3C62723E4E616DB3
:10E0300065202020202020202020202020416273E5
:10E040002054696D652020202020202020252520B7
:10E0500054696D65000000003C62723E3C62723E95
:10E060003367204C4F473A3C62723E003C2F646954
:10E07000763E3C2F626F64793E3C2F68746D6C3E37
:10E0800000000000006800F58050816921F0020165
:10E0900081617047006800F58050816941F002019C
:10E0A00081617047006800F58050816921F400515A
:10E0B00081617047006800F58050816941F400512A
:10E0C0008161704708B507494FF4FA520968B1FBFE
:10E0D000F2F14143009100BF0098411E0091FAD235
:10E0E00008BD0000F801002038B50446206800F59E
:10E0F0008050816941F480118161206800F5805071
:10E10000806900900120FFF7DDFF2068009900F58D
:10E110008050816138BD0000014802F087BB0000DB
:10E120001C3E01201079537940EA03230748084434
:10E1300003641178D37841EA0361937852781B0421
:10E1400043EA02221143416470470000008002400C
:10E150002DE9F041AEB00446002904D04FF4006030
:10E16000E060C000A06000251195129513951495EC
:10E1700015951695E06900287DD017954FF400702D
:10E18000189019951A951B951C951D9540271E975B
:10E190001F952095219522952395249525952695C3
:10E1A00080262796289529952A952B952C952D958F
:10E1B0002068026845490A40D4E902131943179BB5
:10E1C000194341F40071114301602068D0F80080C8
:10E1D000012002F0C9F92068C0F80080206847607B
:10E1E00020684768012002F0BFF920684760206876
:10E1F00085602068C560206881694FF641721140D2
:10E2000041F08001816120688769012002F0ACF94A
:10E21000206887612068C5612068C769012002F015
:10E22000A3F92068C7610195B0040290039501111C
:10E2300004910595069507950895042109910A9082
:10E2400040120B9080010C9040120D900E960F958D
:10E250001095206800F5805081691D4A11401D4AC3
:10E260000A438261206800F580508569012002F030
:10E270007BF9206800E016E000F580508561206899
:10E28000154900F580500160206800F58050056850
:10E29000012002F069F9206800F580500560A0694E
:10E2A000012804D00AE04FF48060179066E72068E8
:10E2B00000F58050C169094A1143C16162692EB0FD
:10E2C0002046BDE8F0410021FFF72CBF0F8120FF61
:10E2D000233FDEF8040020028020C102400001003C
:10E2E00038B504462068016821F004010160206807
:10E2F000006800900120FFF7E5FE216800980860A3
:10E3000038BD38B504462068016841F00401016059
:10E310002068006800900120FFF7D4FE2168009873
:10E32000086038BD38B504462068016821F008014E
:10E3300001602068006800900120FFF7C3FE21689B
:10E340000098086038BD38B504462068016841F07F
:10E35000080101602068006800900120FFF7B2FE0C
:10E3600021680098086038BD2DE9F04FADF2044DEA
:10E3700083464FF4FA7104A8FDF799FF4FF400713A
:10E3800081A8FDF794FF5AA65BA75C4CE069FDF7F6
:10E39000CDFF4FF000080246CDF80080012358461B
:10E3A000E16914F081FCA06BFDF7C0FF0246CDF8D7
:10E3B000008001235846A16B14F076FCDFF84091F1
:10E3C00099F80000A0B34F4904A80DF039F804A84B
:10E3D000FDF7ACFF0246012304A95846CDF80080A2
:10E3E00014F062FC99F80020474904A80DF028F8C1
:10E3F00004A8FDF79BFF0246012304A95846CDF867
:10E40000008014F051FC99F80020404904A80DF058
:10E4100017F804A8FDF78AFF0246012304A958460D
:10E42000CDF8008014F040FC0024DFF8E4A048E0C0
:10E43000FFE738A104A80DF003F804A8FDF776FF64
:10E440000246012304A95846CDF8008014F02CFCA4
:10E450003BE05AF82400817A11B1012903D101E08F
:10E46000354600E03D4690F8642000F14B03816E94
:10E470000078CDE90132039100902B46621C3049AF
:10E4800004A80CF0DDFF04A8FDF750FF02460123AD
:10E4900004A95846CDF8008014F006FC5AF8240070
:10E4A0002849026F04A80CF0CBFF04A8FDF73EFF3B
:10E4B0000246012304A95846CDF8008014F0F4FB6D
:10E4C000641C99F800008442C3DB1FA181A8FDF7FA
:10E4D000F9FE81A8FDF72AFF0246012381A95846CB
:10E4E000CDF8008014F0E0FB0DF2044DBDE8F08F94
:10E4F0005253343835000000455448007401002060
:10E500008905002044C507087CD00708B0C6070865
:10E5100060BE0120D09DD0B5D18220D181D0BED0A7
:10E52000B7D0B4D0B0D0BDD18BD18520D181D0BEF1
:10E53000D0B1D18BD182D0B8D0B93C62723E00004C
:10E54000F8C30708B4CF07083C2F6469763E3C2F18
:10E55000626F64793E3C2F68746D6C3E0000000071
:10E56000F0B5ADF57D7D07464FF4FA74214603A85A
:10E57000FDF79DFE214680A8FDF799FE3E4EF0690D
:10E58000FDF7D4FE00240246009401233846F169C9
:10E5900014F08AFBB06CFDF7C9FE0246009401231B
:10E5A0003846B16C14F080FB012234A137480FF0DB
:10E5B00067FCF07070B136A103A80CF041FF03A80E
:10E5C000FDF7B4FE0246012303A93846009414F077
:10E5D0006BFB3FE02D48C06800B3354903A80CF041
:10E5E0002FFF03A8FDF7A2FE0246012303A9384628
:10E5F000009414F059FB4FF4C87502AB2A4603A9E6
:10E6000022480FF083FDF0702AA103A8FDF766FEF3
:10E6100098B1042229A1FDF773FEF5E729A103A80B
:10E620000CF00EFF03A8FDF781FE0246012303A9AB
:10E630003846009414F038FB09E00123009403A944
:10E640003846029A14F030FB0298A842D5D20F48FF
:10E650000FF08CF821A180A8FDF734FE80A8FDF70B
:10E6600065FE0246012380A93846009414F01CFB85
:10E670000DF57D7DF0BD0000740100204C6F6745F5
:10E6800056454E542E637376000000002848012042
:10E69000D096D183D180D0BDD0B0D0BB20D0BDD05A
:10E6A000B520D181D0BED0B7D0B4D0B0D0BD00009D
:10E6B00064D3070820200D0A000000003C62723E6F
:10E6C00000000000D096D183D180D0BDD0B0D0BBA7
:10E6D00020D0BFD183D181D1820000003C2F64695A
:10E6E000763E3C2F626F64793E3C2F68746D6C3EC1
:10E6F000000000004FF4007002F042BC2DED048BCE
:10E70000ADF5507D07464FF0000A0020AA908146E3
:10E71000A9900024834624219FA8FDF7C8FD482125
:10E720008DA8FDF7C4FD982167A8FDF7C0FD002066
:10E7300066900026F8A065907421B1A8FDF7B7FD9A
:10E74000002019F041FC052301225CA918F0B8FF54
:10E750005E98B4905C98CD9038788DF8C402787843
:10E760008DF8C502B8788DF8C602F8788DF8C70222
:10E7700038798DF8C80278798DF8C902B8798DF8A2
:10E78000CA02388AADF8D40297ED050A8DEDB60AB3
:10E79000F8798DF8CB02787A8DF8CD02387A8DF839
:10E7A000CC02B87A8DF8CE020020CB90B86ECC9017
:10E7B0000DF20F3007F14B01CF90FDF7D9FD07F1B6
:10E7C0001801B7A80746FDF7D3FDD649D44BB1AA27
:10E7D000487843F82020401C4870D348006818B19E
:10E7E000D248006814F0A4FC9DF8CC0268B19DF8F2
:10E7F000C422CFA19FA80CF023FE8DA99FA80DF0E5
:10E80000B3FC39468DA8FDF75DFD9DF8C412CF4AD3
:10E81000669852F820000078884279D100276698DF
:10E8200052F820509DF8C502032802D004281ED0BB
:10E830003AE000212B7917E005EB8102B2F862047F
:10E84000B2F86424BDF8D4C209E0844503D1A046DF
:10E850000126012705E0641CA4B2401C80B282425C
:10E86000F3D2012E20D0491C8B42E5DC1CE00021B4
:10E870006B7917E005EB8102B2F8B204B2F8B42468
:10E88000BDF8D4C209E0844503D1A0460126012782
:10E8900005E0641CA4B2401C80B28242F3D2012E77
:10E8A00002D0491C8B42E5DC00249DF8CA020128F5
:10E8B0005FD100269DF8C602032802D0042828D084
:10E8C00057E000212B7920E005EB8102B2F86204C9
:10E8D000B2F864249DEDB60A12E000EE900AF8EE5C
:10E8E000600AB4EE600AF1EE10FA05D100EE104AAB
:10E8F000B8EE409A012605E0641CA4B2401C80B228
:10E900008242EAD2012E34D0491C8B42DCDC30E05A
:10E9100026E000216B7920E005EB8102B2F8B20419
:10E92000B2F8B4249DEDB60A12E000EE900AF8EEBB
:10E93000600AB4EE600AF1EE10FA05D100EE104A5A
:10E94000B8EE409A012605E0641CA4B2401C80B2D7
:10E950008242EAD2012E0CD0491C8B42DCDC08E05A
:10E9600000276698401CC0B2669066981428FFF491
:10E970004EAF57EA060073D10DF10E00CE90002F76
:10E9800034D14FF4B8716846FDF791FC9DF8C4028C
:10E990008DF80000FA20ADF80C0000208DF80A0078
:10E9A0009DF8CE028DF801009DF8C70238B1BDF880
:10E9B000D42267A1531CCE980CF042FD05E0BDF8AF
:10E9C000D42265A1CE980CF03BFD9DF8C50203282A
:10E9D00002D0042804D006E003208DF8080002E0ED
:10E9E00004208DF809006846FEF756FD0CE151F849
:10E9F00020301B78934270D151F820508EBB9DF887
:10EA0000CA02012838D14FF4B8716846FDF74FFCAF
:10EA10009DF8C4028DF80000FA20ADF80C0000202B
:10EA20008DF80A009DF8CE028DF801009DEDB60A22
:10EA3000BCEEC00A10EE102A9DF8C80228B1531C83
:10EA400043A1CE980CF0FCFC03E043A1CE980CF05F
:10EA5000F7FC9DF8C602032804D0042806D008E07D
:10EA6000DBE009E003208DF8080002E004208DF8C7
:10EA700009006846FEF710FD9DF8C502032802D084
:10EA800004281ED03BE000212B7917E005EB810222
:10EA9000B2F86204B2F86424BDF8D4C209E0844537
:10EAA00003D1A0460126012705E0641CA4B2401C46
:10EAB00080B28242F3D2012E21D0491C8B42E5DC88
:10EAC0001DE000216B7918E005EB8102B2F8B20479
:10EAD000B2F8B424BDF8D4C20AE08DE0844503D175
:10EAE000A0460126012705E0641CA4B2401C80B2A8
:10EAF0008242F3D2012E02D0491C8B42E4DC002476
:10EB00009DF8CA0201287DD100269DF8C60203287F
:10EB100024D0042849D075E020200D0A0000000010
:10EB200060BE012088050020980000201C01002004
:10EB3000D0A3D181D182D180D0BED0B9D181D182B0
:10EB4000D0B2D0BE2025642E2000000040B60120A7
:10EB500025642D25640000002564000000212B7928
:10EB600020E005EB8102B2F86204B2F864249DED66
:10EB7000B60A12E000EE900AF8EE600AB4EE600AFF
:10EB8000F1EE10FA05D100EE104AB8EE409A0126D7
:10EB900005E0641CA4B2401C80B28242EAD2012E7D
:10EBA00030D0491C8B42DCDC2CE000216B7920E06A
:10EBB00005EB8102B2F8B204B2F8B424DDEDB60A76
:10EBC00012E000EE100AB8EE400AF4EE400AF1EE50
:10EBD00010FA05D100EE104AB8EE409A012605E081
:10EBE000641CA4B2401C80B28242EAD2012E09D039
:10EBF000491C8B42DCDC05E00027401CC0B2142815
:10EC0000FFF4F5AE012F08D04FF47A7014F05AF9E2
:10EC10000020FD499DF8C422E9E69DF8CD020028B8
:10EC200071D06421F948FDF742FBF9A167A8CF9A9A
:10EC30000CF006FC9DF8C422F6A1F4480CF000FC90
:10EC4000F24967A8FDF73EFBBDF8D422AFF2F80108
:10EC5000EE480CF0F5FB9DF8C502032802D004280D
:10EC600005D008E0ECA1E948FDF72CFB03E0EBA19F
:10EC7000E648FDF727FB9DF8C70230B3E8A1E3485B
:10EC8000FDF720FB9DF8C902012823D0022826D0D9
:10EC9000032829D004282CD0E2A1DC48FDF712FB80
:10ECA000DA4967A8FDF70EFB9DF8CA0260B3BDF80C
:10ECB000D422AFF25C11D5480CF0C2FB9DF8C5021E
:10ECC00003281BD0042820D023E0D7A1CF48FDF78C
:10ECD000F9FAD7E7D5A1CD48FDF7F4FAE0E7D4A1DA
:10ECE000CA48FDF7EFFADBE7D2A1C848FDF7EAFA18
:10ECF000D6E7D1A1C548FDF7E5FAD1E7C6A1C348DB
:10ED0000FDF7E0FA05E033E010E0C4A1BF48FDF7ED
:10ED1000D9FA9DF8C70220B1C8A1BC48FDF7D2FAC4
:10ED20000FE0C7A1B948FDF7CDFA0AE0B698FDF7A4
:10ED30007BFB41EC100BC3A153EC102BB3480CF040
:10ED40007FFBB24967A8FDF7BDFABEA167A8FDF732
:10ED5000B9FA9DF8CC0200909DF8CB329DF8CD22F7
:10ED6000B9A1AA480CF06CFBA84967A8FDF7AAFA5C
:10ED70004FF47A76B74C02E0304614F0A3F82168DD
:10ED80000029F9D041F2883014F09CF805EB4804D2
:10ED90009DF8C50203280FD09DF8C70218B3B4F937
:10EDA0009A0308F1010105EB4101B1F89A1340EA19
:10EDB000014008EE100A1CE09DF8C70260B1B4F9EA
:10EDC000D20208F1010105EB4101B1F8D21240EA8B
:10EDD000014008EE100A0CE0B4F8D20200EE100A6E
:10EDE000B8EE408A05E0B4F89A0300EE100AB8EED7
:10EDF000408A9DF8CA0298B3BCEEC90A10EE100A08
:10EE000080B29DF8C612032910D09DF8C71241B3F5
:10EE100005EB4001B1F99A13401C05EB4000B0F836
:10EE20009A0341EA004008EE900A26E09DF8C712D6
:10EE300069B105EB4001B1F9D212401C05EB40006D
:10EE4000B0F8D20241EA004008EE900A15E005EB66
:10EE50004000B0F8D20200EE100AF8EE408A0CE052
:10EE600009E0FFE705EB4000B0F89A0300EE100A56
:10EE7000F8EE408A01E0DDEDB68A9DF828030D2802
:10EE800017D10020A9908146AA9083467249087044
:10EE90008DF8280300220121704802F066F9002253
:10EEA0004FF400416E4802F060F94FF4FA6014F03C
:10EEB00009F89DF8C902012806D002280CD00328C1
:10EEC00012D0042818D023E0B4EE688AF1EE10FACC
:10EED0001ED14FF0010A1BE0B4EEE88AF1EE10FA01
:10EEE00016DD4FF0010A13E0B4EEE88AF1EE10FAF5
:10EEF0000ED24FF0010A0BE0BCEEC80A10EE100A69
:10EF0000BCEEE80A10EE101A084201D04FF0010AD8
:10EF1000BAF1000F77D09DF8280310B9CB98401CA8
:10EF2000CB9001208DF828039DF8CB02A0B1B9F158
:10EF3000000F11D14FF001094FF0000B464908783E
:10EF4000401C087001221146444802F00EF90122CB
:10EF5000D103434802F009F99DF8CD02E8B3A9981E
:10EF6000D8BB0120A9903F480078B0B3DFF8F8A0E3
:10EF700044F62061DAF8000014F002F93B4E4FF03D
:10EF8000FF31306814F0FCF80022ABA9384802F0D9
:10EF90007DFE0022B0A9364802F056FEAC99AD982D
:10EFA000401A4FF47A714843AD99491CB0FBF1F710
:10EFB00064211648FDF77BF94FF496712D48FDF753
:10EFC00076F99DF8C3029DF8C13200F5FA60009011
:10EFD0009DF8C22228A10D4800E0D2E00CF030FAE2
:10EFE0000A492448FDF76EF99DF8AE02CDE9000705
:10EFF0009DF8AD329DF8AC2223A104480CF020FA14
:10F0000002491C484CE02BE140B6012080C201209F
:10F0100025733B0025643B00680000006900000088
:10F02000462000003F200000492000003D20000055
:10F030003E2000003C20000026200000463B00004F
:10F04000493B000025663B0025642F25642F25647D
:10F050003B0000009800002088050020000C0240C2
:10F060000010024014AF01203001002000010020F8
:10F070005807012054C10120253032642E2530323A
:10F08000642E253032642000253032643A25303237
:10F09000643A253032642E253033643B0000000092
:10F0A000FDF710F918EE100AFDF7BEF941EC100B50
:10F0B00067A953EC102B8E480CF0C2F98C49A1F5CE
:10F0C0009670FDF7FFF88B486599FDF7FBF818F08F
:10F0D00029FA062288A18C480EF0D2FE8B4FB87018
:10F0E00018F02EFAB87810B1012815D018E018F0F1
:10F0F00019FA7868FDF71AF90246A8AB82487968D0
:10F100000FF01BFAB87080480EF030FB18F018FAB8
:10F11000FA2013F0D7FE03E07D480168491C016026
:10F1200018F000FA122274A177480EF0A9FEB87008
:10F1300018F006FAB87810B1012817D01AE018F0C4
:10F14000F1F97148C1680EF031FCB8706948FDF7FB
:10F15000EDF80246A8AB67496B480FF0EEF9B870BE
:10F1600069480EF003FB18F0EBF903E0684801680A
:10F17000491C0160306813F0DBFFDAF8000013F07F
:10F18000D7FF9DF8CC02E0B3AA98D0BB0120AA908B
:10F19000861E60483146006813F0F2FFDFF878A160
:10F1A0003146DAF8000013F0EBFF5C4F387810B30B
:10F1B0005BA15C480CF044F95B49032008605B4E9E
:10F1C000002030604FF4FA6013F07CFE584801686C
:10F1D00021F004010160016841F00801016030681C
:10F1E000411C31604F49095C51480838016041F2C7
:10F1F000883013F067FE8DA809F058FB3A7832B3D7
:10F2000000E062E04BA147480CF01AF94548FDF7D1
:10F210008DF845490860454E002030604FF4FA678C
:10F22000384613F04FFE4248016821F004010160A6
:10F23000016841F0080101603068411C31603949C2
:10F24000095C3B4808380160384613F03BFEDAF8A9
:10F25000000013F06DFF2F48006813F069FF40E0D5
:10F2600000208DF82803AA90A990B9F1000F01D0D1
:10F27000CC98B8B1B9F1000F33D0CC9828B30BF1CA
:10F28000010B0BEB4B01CC98C1EBCB11B0EB410F59
:10F2900027D24FF000091D490878401EC0B20870FF
:10F2A000A0B11EE04FF0000918490878401EC0B216
:10F2B000087050B900220121224801F056FF0022B7
:10F2C0004FF40041204801F050FF0AE000220121E4
:10F2D0001C4801F04AFF00224FF400411A4801F097
:10F2E00044FF4FF0000AFA2013F0ECFD50E5000057
:10F2F00080C2012054C101204C6F674556454E54D1
:10F300002E6373760000000028BF012088050020CE
:10F31000640300200C010020100100206003002085
:10F320002B2B2B00E8A10120E0020020CC020020C2
:10F330000C48004061745E736973743D25640D0A66
:10F3400000000000000C024000100240002200F00B
:10F3500001B8000030B5044601200D4B5D7A002D48
:10F3600014D1587A1D54587A03EB800044605C7ABB
:10F3700003F108002254587A421C5A723030087047
:10F380003A2048702F208870CD70002030BD0000DA
:10F39000C80601200022002905D001291FD002291A
:10F3A00020D04FF4407211490B6823F440730B6076
:10F3B0000B6813430B600A6822F0F8020A600A68BF
:10F3C000F82393FAA3F3B3FA83F3984040F00200D2
:10F3D00002430A60086840F48030086070474FF4C8
:10F3E0008072E0E74FF40072DDE70000103C02405D
:10F3F000064A136823F4407313601368136013689C
:10F4000043F001031360017070470000103C02409C
:10F4100010B508490C6824F440740C600C6844F47E
:10F4200040740C600C6844F001040C60026043609E
:10F4300010BD0000103C0240074A136823F44073DB
:10F440001360136843F480731360136843F001037F
:10F450001360018070470000103C0240074A1368A7
:10F4600023F440731360136843F40073136013684C
:10F4700043F001031360016070470000103C02403C
:10F480000078704717490868C206174805D5C26951
:10F4900042F01002C26110220A600A68920605D585
:10F4A000C26942F00802C26120220A600A6852065C
:10F4B00005D5C26942F00402C26140220A600A68AE
:10F4C000120605D5C26942F00202C26180220A60BA
:10F4D0000A68920705D5C26942F02002C261022083
:10F4E000086070470C3C0240E04B012070B50446B8
:10F4F00011490020C86101F03FFE05460F4E09E0AA
:10F50000601C07D024B101F037FE401BA04201D996
:10F51000032070BD3068C003F2D43068C00701D04A
:10F5200001203060306810F0F20F03D0FFF7AAFF1F
:10F53000012070BD002070BDE04B01200C3C02405A
:10F54000FEB500221146102013F0DCFA064630000A
:10F5500029D01522002113F0F9F9002823D1FF2129
:10F56000304613F0BFFA00240125AF0202A930464D
:10F5700013F060F930B1029813F000FA029813F01A
:10F580002FFAF3E7CDE900543A4607A10848029B59
:10F5900018F0EAFC0128E9D0029813F0EFF902987C
:10F5A00013F01EFAE2E7FEBD667470636D6400003E
:10F5B000B5F50008C6B080464FF4867101A8FCF787
:10F5C00076FEDFF8FCA000218AF800103D48C8F85C
:10F5D0001C00D8F8042041F28830C2F89000D8F816
:10F5E00004204FF47A70C2F89400D8F80420052063
:10F5F000C2F89800D8F80400027A42F008020272B9
:10F6000000248DF80E1001912FA00EF02DF8404629
:10F61000DAF8141000F056FFBAF80200401CAAF8FD
:10F6200002000DF1040944A9404613F02FFB50B12C
:10F63000404613F0D5F9DAF86C0013F0D1F9002048
:10F6400017F0F2FFEFE7449E16E0778975680FE048
:10F6500028780D281BD021464944641C88726D1CF3
:10F66000FF2C05D900244046DAF8381000F02AFFB4
:10F670007F1E781CECD13668002EE6D144980189B3
:10F68000404613F00FFB449813F048FFCBE76D1C86
:10F6900009EB040100208872002445AA0B490DF1F2
:10F6A0000E00FCF77DFE834645AA08490020FCF7C2
:10F6B00077FE024601AB5946404600F009F8D7E70D
:10F6C000EC020020C0D401002F000000AE75070836
:10F6D0002DE9FF4FA3B00F4615461E464FF0FF38E9
:10F6E0004FF00009DFF8ECA3FB4C09EB49000AEBF3
:10F6F000800039464068FCF775FEF8B109F1010950
:10F70000B9F1130FF1D34046F44A06F10A014FF064
:10F71000050841F288394FF47A7A4FF0000B2291B4
:10F72000132872D2DFE800F024385DFE77BFFDFCBD
:10F73000FBFAF9F87C8186F7F8F6F90009EB490045
:10F740000AEB8000417A71B190F900803168032999
:10F75000D9D0007A0028D6D0E16C239800F0B2FE10
:10F7600027B0BDE8F08F216C239800F0ABFEF7E7DF
:10F770005DB12946DAA0FCF7E0FD58B10120306008
:10F78000616A239800F09EFEEAE7A16A239800F0E0
:10F7900099FEE5E70220F2E74DB1306802280BD070
:10F7A000012809D0616C239800F08CFED8E7E16C49
:10F7B000239800F087FED3E7022804D12946C8A089
:10F7C000FCF7BBFD30B1C6F800B0E16C239800F047
:10F7D00079FEC5E703203060216A239800F072FEAD
:10F7E000BEE71DB9E16B239800F06CFEBEA1284670
:10F7F000FCF7F8FD50B1BDA12846FCF7F3FD28B198
:10F80000A16C239800F05EFEAAE7EAE3E168239882
:10F8100000F058FEA4E72169239800F053FE9FE70B
:10F82000A169239800F04EFE9AE7E168239800F062
:10F8300049FE95E7642105A8FCF739FD6088401C66
:10F8400080B26080010AC2B2A948C3788578CDE948
:10F850000053CDE902124378027805A8E16D0BF060
:10F86000EFFD00221146102013F04CF9E0662399B9
:10F87000A1B16288002113F069F820B19DA12398FD
:10F8800000F020FE6CE7FF21E06E13F02BF9012061
:10F89000207005A9239800F015FE61E795A1239833
:10F8A00000F010FE5CE71DB9E16B239800F00AFE42
:10F8B000884921AA08392846FCF772FDFCF7A7FD04
:10F8C000854D60352870834921AA08390020FCF74E
:10F8D00067FDFCF79CFD68707E4921AA083900206D
:10F8E000FCF75EFDFCF793FDA8707A4921AA083960
:10F8F0000020FCF755FDFCF78AFDE87029786A784E
:10F9000041EA0060A978090441EA02210843291D5F
:10F91000086008E0FBE350E162E1BFE296E137E115
:10F92000B0E01BE09DE06B4921AA08390020FCF7FC
:10F9300037FDFCF76CFD0002A080664921AA08395A
:10F940000020FCF72DFDFCF762FDA188C0B2084342
:10F95000A080E168239800F0B5FD01E7207810B39E
:10F9600020A9E06E12F066FF0028F9D120984FF42C
:10F97000FA61C1614168C1F890904168C1F894A0F2
:10F980004168C1F898804068017A41F0080101722D
:10F990004FF4807122980DF0FEFEB0B3216D2398D4
:10F9A00000F090FD56E04C486430006808B1A08833
:10F9B00018B9616C239800F085FD002211461020D3
:10F9C00013F0A0F805465848E8616868C0F89090C0
:10F9D0006868C0F894A06868C0F898806868017A80
:10F9E00041F0080101723C49A2886431284612F0B6
:10F9F000DFFF58B1E16A239800F064FD284612F059
:10FA0000BDFF284612F0ECFFAAE617E04FF4807124
:10FA100022980DF0C0FE20B1216D239800F052FD18
:10FA2000ECE7A168239800F04DFD3146284600F030
:10FA3000D5FBE169239800F045FDDFE7A168239835
:10FA400000F040FD3146209800F0C8FBE1692398A2
:10FA500000F038FD209812F091FF209812F0C0FFBE
:10FA60007EE64FF4807122980DF095FE20B1616D15
:10FA7000239800F027FD73E6DDE922202BA100F09A
:10FA800021FD6DE61DB9E16B239800F01BFD287880
:10FA90002F280AD12EA00DF0E7FD2846FCF746FCE2
:10FAA000012802D9284400F801BC28460DF0DCFDED
:10FAB00020B1616D239800F005FD51E64FF480718F
:10FAC00022980DF068FEDDE9222022A100F0FAFC68
:10FAD00046E60000B4750708EC0200200001002093
:10FAE00061646D696E000000410000004900000083
:10FAF0004C010020353032205061737369766520E7
:10FB00006D6F6465206F6620636F6E6E65637469E8
:10FB10006F6E206973206E6F7420737570706F72D2
:10FB20007465642E0D0A0000C0D401003235372000
:10FB3000222573222069732063757272656E7420AA
:10FB40006469726563746F72792E0D0A000000009B
:10FB50002F000000323030204344555020636F6D39
:10FB60006D616E64207375636365737366756C2E67
:10FB700020222573222069732063757272656E746A
:10FB8000206469726563746F72792E0D0A0000003B
:10FB9000FEA00DF069FD20B1616D239800F092FC8C
:10FBA000DEE54FF4807122980DF0F5FDAFF25C01B7
:10FBB000DDE9222000F086FCD2E51DB9E16B239837
:10FBC00000F080FC28460EF051F820B1216D2398FA
:10FBD00000F078FCC4E5EEA1239800F073FCBFE5CB
:10FBE0001DB9E16B239800F06DFC4FF00008002672
:10FBF000DFF8BC93EF4F08E059F826002946D0F80B
:10FC00001005FCF79AFB58B1761C38788642F3DB76
:10FC1000B8F1000F07D0216B239800F053FC9FE54B
:10FC20004FF00108F4E717F07DFC28460EF012FCB7
:10FC3000054617F085FC25B1216D239800F042FCA4
:10FC40008EE5DDA1239800F03DFC89E54FF0FF3102
:10FC50001646106813F094FA2078D8B120A9E06E07
:10FC600012F0E8FD0028F9D120984FF4FA61C16143
:10FC70004168C1F890904168C1F894A04168C1F80A
:10FC800098804068017A41F00801017201202070DB
:10FC9000F5B39CE0D048006808B1A08818B9616C41
:10FCA000239800F00FFC1DB9E16B239800F00AFCCB
:10FCB0004FF40B7014F06AF9A06650B317F032FCE1
:10FCC00001222946A06E0EF0DBF8054617F038FC3D
:10FCD00055B1A06E17F040FC216D239800F0F2FBA7
:10FCE000306813F025FA3BE500221146102012F08F
:10FCF00009FF0546B948E8616868C0F890906868EF
:10FD0000C0F894A06868C0F898806868017A01E03B
:10FD100059E050E041F008010172A288AE4928463E
:10FD200012F046FE0746380013D0E16A239800F02F
:10FD3000C9FBA06E0DF01AFDA06E17F00DFC284651
:10FD400012F01CFE284612F04BFE306813F0F0F95A
:10FD500006E5A168239800F0B5FB4FF4807917F011
:10FD6000E1FB262001F070FB1FAB4A462299A06EF2
:10FD70000EF0CCF98046262001F071FB17F0E0FB75
:10FD80001F9A58EA020009D00123CDF800B0284696
:10FD9000229912F089FF07463800E0D058EA070898
:10FDA00004D0616B239800F08DFBC2E7E1692398D2
:10FDB00000F088FBBDE7A16D239800F083FB30685D
:10FDC00013F0B6F9CCE4E16B239800F07BFB4FF421
:10FDD0000B7014F0DBF8A066F0B317F0A3FB012260
:10FDE0002946A06E0EF04CF8054617F0A9FB55B158
:10FDF000A06E17F0B1FB216D239800F063FB306813
:10FE000013F096F9ACE4A168239800F05BFB4FF483
:10FE1000807517F087FB262001F016FB1FAB2A46E2
:10FE20002299A06E0EF072F98046262001F017FB91
:10FE300017F086FB1F9A58EA020009D00123CDF87B
:10FE400000B02299209812F02FFF07463800E0D02A
:10FE500058EA070815D000E018E0616B239800F01D
:10FE600031FBA06E0DF082FCA06E17F075FB2098A0
:10FE700012F084FD209812F0B3FD306813F058F9A9
:10FE80006EE4E169239800F01DFBEAE7A16D239879
:10FE900000F018FB306813F04BF961E44FF0FF31CC
:10FEA0001646106813F06CF92078D8B120A9E06EDE
:10FEB00012F0C0FC0028F9D120984FF4FA61C1611A
:10FEC0004168C1F890904168C1F894A04168C1F8B8
:10FED00098804068017A41F0080101720120207089
:10FEE000F5B3CFE03C48006808B1A08818B9616C50
:10FEF000239800F0E7FA1DB9E16B239800F0E2FACD
:10FF00004FF40B7014F042F8A06650B317F00AFBE0
:10FF100006222946A06E0DF0B3FF054617F010FB30
:10FF200055B1A06E17F018FB216D239800F0CAFAA6
:10FF3000306813F0FDF813E400221146102012F08F
:10FF4000E1FD07462548F8617868C0F89090786828
:10FF5000C0F894A07868C0F898807868017A01E0C9
:10FF60008CE083E041F008010172A2881A4938460A
:10FF700012F01EFDA0B3E16A239800F0A3FAA06E70
:10FF80000DF0F4FBA06E17F0E7FA2BE02E2E000028
:10FF9000323530204D4B4420636F6D6D616E6420AF
:10FFA0007375636365737366756C2E0D0A000000CC
:10FFB00040B601205C03002032353020524D4420F1
:10FFC000636F6D6D616E64207375636365737366D3
:10FFD000756C2E0D0A00000050030020C0D40100F3
:10FFE00007E0C4E0384612F0FBFC306813F0A0F8DC
:10FFF0000AE4A168239800F065FA23E0DDF8788030
:020000040801F1
:1000000014E017F08FFAB8F80A201FABD8F80410E4
:10001000A06E0EF092FA054617F092FA4DB9B8F8B4
:100020000A001F99884204D3D8F80080B8F1000F65
:10003000E7D11E980189384612F034FE1E9813F05D
:100040006DFA2DB91EA9384612F020FE0028D5D031
:1000500025B1616B239800F035FA03E0E16923983C
:1000600000F030FAA06E0EF0A1F988E7A16D239898
:1000700000F028FA306813F05BF803E4E16B239892
:1000800000F020FA4FF40B7013F080FFA066E8B385
:1000900017F048FA06222946A06E0DF0F1FE074639
:1000A00017F04EFA57B1A06E17F056FA216D23984B
:1000B00000F008FA306813F03BF84EE4A16823988A
:1000C00000F000FA1DE01E9D10E017F02BFA6A897F
:1000D0001FAB6968A06E0EF030FA074617F030FAD1
:1000E00037B968891F99884202D32D68002DECD159
:1000F0001E980189209812F0D5FD1E9813F00EFA73
:1001000047B91EA9209812F0C1FD01E01CE023E0D0
:100110000028D8D027B1616B239800F0D3F903E011
:10012000E169239800F0CEF9A06E0EF03FF9A06EC1
:100130000DF01CFBA06E17F00FFA209812F050FC87
:10014000306812F0F5FF08E4A16D239800F0BAF9C9
:10015000306812F0EDFF57E4074928460EF0F3F837
:10016000054806A10268239800F0ACF94CE4216C24
:10017000239800F0A7F947E450B101203231332031
:1001800025640D0A000000001CB500220A490B4836
:100190000DF036FE20B140F2A94109A00BF03AF96A
:1001A00000200121CDE9001003460A0208A10A48F7
:1001B00017F0DAFE01201CBD6A00002014AF0120F8
:1001C0002E2E5C4654505C6674702E630000000056
:1001D000667470616363000041F500082DE9F34F18
:1001E000A5B00D46002607968F4F42F21071386871
:1001F00012F0C6FF0DF136008C490446FCF7B8F842
:1002000029200890262001F01FF905F10A0118A8FD
:1002100024910DF02FFF002873D107AD4FF48078A3
:1002200017F080F908A918A80EF051F8814617F0C8
:1002300087F9B9F1000FEFD19DF83600002860D0A2
:100240002E28EDD02046FCF771F8B0B1BDF824009F
:10025000C0F3431100F01F09BDF826004FEAD02A71
:10026000C0F3451B0D296ED2DFE801F0B2767B802A
:10027000858A8F94999EA3A8AD00BDF82400C0F391
:10028000431100F01F09BDF826004FEAD02AC0F341
:10029000451B0D2945D2DFE801F044070C11161B60
:1002A00020252A2F353A3F0061A107A8FCF760F806
:1002B0003BE060A107A8FCF75BF836E05EA107A869
:1002C000FCF756F831E05DA107A8FCF751F82CE0E7
:1002D0005BA107A8FCF74CF827E05AA107A8FCF798
:1002E00047F822E058A107A8FCF742F81DE057A103
:1002F00007A8FCF73DF818E055A107A8FCF738F867
:1003000013E087E053A107A8FCF732F80DE052A1F3
:1003100007A8FCF72DF808E050A107A8FCF728F87B
:1003200003E043A107A8FCF723F8CDE903AB05944C
:100330000898CDE900059DF82800CDF80890C00682
:1003400002D5642301E043E02D2345A241462498D1
:100350000BF062F8024654E035A107A8FCF708F854
:100360003AE034A107A8FCF703F835E032A107A86A
:10037000FBF7FEFF30E031A107A8FBF7F9FF2BE008
:100380002FA107A8FBF7F4FF26E02EA107A8FBF793
:10039000EFFF21E02CA107A8FBF7EAFF1CE02BA14F
:1003A00007A8FBF7E5FF17E029A107A8FBF7E0FF87
:1003B00012E028A107A8FBF7DBFF0DE026A107A8A4
:1003C000FBF7D6FF08E025A107A8FBF7D1FF03E064
:1003D00017A107A8FBF7CCFFCDE903AB059408985C
:1003E000CDE900059DF82800CDF80890C00601D59C
:1003F000642300E02D2326A2414624980BF00CF83C
:100400000246DDE924100123009612F04DFC00287D
:100410003FF406AF262001F022F8386812F088FE7B
:1004200027B0BDE8F08F00000001002048AE012099
:100430004A616E00466562004D6172004170720053
:100440004D6179004A756E004A756C004175670010
:10045000536570004F6374004E6F7600446563000F
:10046000256372772D2D2D2D2D2D2D203120757387
:1004700065722067726F7570202575202530326493
:1004800020253032643A253032642025730D0A006D
:10049000256372772D2D2D2D2D2D2D203120757357
:1004A00065722067726F7570202575202573202571
:1004B00030326420253032643A253032642025738E
:1004C0000D0A00000FB438B5044606ABA02107485A
:1004D000059A0AF0C9FF0246002000900123034953
:1004E000204612F0E1FB38BC5DF814FB71AE012030
:1004F00038B50FA44FF47A7012F0E4FC2046FBF7F5
:1005000015FF0146204608F063F941F6583012F015
:10051000D9FC6A4608A10948FBF742FF6A4608A1D0
:100520000020FBF73DFFFBF772FF80B238BD0000F3
:1005300061742B637371000020000000389D01205E
:100540002C00000090F83510022903D0802141656D
:1005500001207047052180F835100068016821F0FE
:10056000010101600020704731B500F005FE05462D
:10057000009C601C00D0641C00F0FEFD401BA042EB
:10058000FAD338BD2DE9F04105460C4695F84500F3
:10059000012875D0012685F84560022085F84400C1
:1005A000002C70D02868026841490A40D4E9001341
:1005B0001943D4E902373B431943AB681943236914
:1005C000194363691943EB681943A3691943E36944
:1005D0001943236A1943636A1943A36A19431143F0
:1005E0000160286807680120FFF7BEFF28680760E0
:1005F000D4E90B010843D4E90D1211430843E16B20
:100600000843216C0843616C0843A16C08432968C6
:100610004860286847680120FFF7A6FF2868476000
:100620002968E06C88602968206DC8602868826944
:100630004FF641710A40D4E916131943B4F85470C7
:10064000236E43EA07431943636E1943A36E1943AC
:1006500011438161286887690120FFF785FF2868B9
:100660008761D4E91B0108432968C8612868C46907
:100670000120FFF779FF2868C46114E000E002E080
:100680000220BDE8F0812868016821F49042D5E994
:100690000213194311430160286804680120FFF721
:1006A00063FF2868046005F8446F00206870E8E77D
:1006B0000F8120FFF0B5002490F84550012D09D09E
:1006C000012780F84570022580F84450816244F289
:1006D000F45C19E00220F0BD01EB44154FF0004638
:1006E0002E60C5F804C0C4EBC41606EB460602EB48
:1006F0008606AE6086695E1EB44203D205F120060E
:10070000EE6000E0E960641C9C42E5D3026802F5FB
:100710008052D16080F84470002180F8451000209C
:10072000F0BD2DE9F043002590F84540012C0BD099
:100730004FF0010C80F845C0022480F84440C162AB
:100740004FF480185F1E1CE00220BDE8F08301EB2F
:100750004514C4F80080C5EBC51606EB460602EB4F
:100760008606A660C66926B9266846F44009C4F81C
:100770000090BD4203D204F12006E66000E0E16093
:100780006D1C9D42E3D3026802F58052116180F82E
:1007900044C0002180F845100020D6E7704730B5EE
:1007A000002290F84510012907D0012480F8454027
:1007B000022180F8441000251DE0022030BD521CAB
:1007C0000B68C3F30123022B0BD00B6813F4407F9B
:1007D0000CD0826A4263826B521C8263012A15D05C
:1007E00015E001638463C968816204E0836B5B1C6C
:1007F0008363C9688162816A0B68002B01DB042A6C
:10080000DDD300F8444F4570012030BD01630A6814
:10081000C2F30D42121F28304261826892688261E1
:10082000C968016004774577002030BD70B5044683
:10083000206800F5805041694FF0000649064FF0EE
:1008400001050CD5204600F021FA2068402100F572
:100850008050416184F8445084F845600DE040695F
:10086000C0070AD0204600F0E4FA206800F5805066
:10087000456184F8445084F8456020684FF4803125
:1008800000F580504161206800F580504069000407
:100890000CD52046FFF782FF20684FF4004100F599
:1008A0008050416184F8445084F8456070BD000078
:1008B0002DE9FC4704464FF00008CDF80480C146FE
:1008C000002C03D094F8440018B107E00120BDE8E3
:1008D000FC8784F84580204600F008F979480168D3
:1008E00041F480410160006800F480400090764847
:1008F000016821F4000101600168226A114301606E
:10090000206800F58050016841F00101016000F0AD
:1009100033FC05464FF4FA760AE000F02DFC401B4C
:10092000B04205D9032084F8440084F84580CEE71E
:10093000206800F580500068C007EED1206800698B
:1009400020F01C0500F03AFF6049614A01449142E1
:1009500002D245F0080516E05E495F4A0144914223
:1009600002D245F00C050EE05C495D4A014491421B
:1009700009D35C4908445C49884202D245F0040529
:1009800001E045F01005206805614FF400420021A8
:10099000204600F04FFA012538B101212046FDF72D
:1009A000D7FB84F84450012091E7FF20FFF7DCFDDE
:1009B0006068E0B300F0E0FB074641F2883601AA28
:1009C0000121204600F020F900F0D6FBC01BB04208
:1009D00009D901212046FDF7BBFB84F8445084F877
:1009E0004580032073E701984007E8D54FF4805213
:1009F0000021204600F01EFA38B101212046FDF703
:100A0000A7FB84F84450012061E700F0B5FB0746DE
:100A100001AA0121204600F0F7F800F0ADFBC01B51
:100A2000B0420BD901212046FDF792FB00E028E0FF
:100A300084F8445084F84580032048E701988006F4
:100A4000E6D501AA1021204600F0DEF838B10121D8
:100A50002046FDF77DFB84F84450012037E70198DC
:100A6000410703D54FF40061E16001E0C4F80C8058
:100A7000800702D5C4F808801BE04FF48040A060D6
:100A800017E0E0680021C0F3CF02A068C0F34F0078
:100A90000243204600F0CEF938B101212046FDF78F
:100AA00057FB84F84450012011E740F6FF70FFF730
:100AB0005BFD49462046FDF74BFB84F8445000207F
:100AC00005E70000443802400438014000D3CEFE60
:100AD000C0E1E40040F1E9FD40787D0100796CFC63
:100AE000005A6202001F0AFA80F0FA02F0B587B0DD
:100AF0000068404988427BD100243F48016841F0AA
:100B000000710160016801F000710191016841F01C
:100B100080610160016801F080610191016841F02C
:100B200000610160016801F000610191016841F01C
:100B300001010160016801F001010191016841F0CA
:100B400002010160016801F002010191016841F0B8
:100B500004010160016801F004010191016841F0A4
:100B600020010160016801F020010191016841F05C
:100B700040010160016801F040010191016841F00C
:100B800080010160016801F080010191016841F478
:100B900080710160006800F4807001903E20029036
:100BA000022503950494032605960B27069702A9B0
:100BB000124800F0F1F98F200290039504940596F5
:100BC000069702A90E4800F0E7F943F60350029099
:100BD000039504940596069702A90A4800F0DCF9EB
:100BE000002207213D2000F045FC3D2000F037FCAD
:100BF00007B0F0BD008002403038024000080240DB
:100C000000000240000402402DE9F04704469146EE
:100C100094F8440082281DD0822084F84400206883
:100C2000026902F01C03228A4FF6FF7505EAC22210
:100C30001A434FF4F86303EA8111114321F00201D2
:100C400041F00105056100F097FA064601274FF4CF
:100C500080380FE00220BDE8F08700F08DFA801B9D
:100C6000404505D304F8447F002060700320F2E77C
:100C700020680569E807F0D12068406980B2C9F8AA
:100C8000000084F844700020E5E700000148006897
:100C900012F04EBA2C01002070B5044694F84500BD
:100CA000012819D0012584F84550022084F8440019
:100CB0002046FDF748FB2046FDF723FB2046FDF7C5
:100CC00013FA2046FDF7F6F92046FDF7E3F904F89C
:100CD000445F0020607070BD022070BD70B5044696
:100CE00094F84500012819D0012584F845500220C8
:100CF00084F844002046FDF7D5F92046FDF7C2F9F7
:100D00002046FDF7EDFA2046FDF7EEF92046FDF707
:100D100009FB04F8445F0020607070BD022070BDC4
:100D2000F0B5002390F84520012A11D0012780F862
:100D30004570022280F84420002659B1C46A226816
:100D4000002A0CDA122100F8441F46700120F0BD81
:100D50000220F0BD00F8447F46700120F0BD40F253
:100D6000F455A9420AD9B1FBF5F2B1FBF5FC05FB3C
:100D70001C1CBCF1000F02D0521C00E00122012A11
:100D800044D1226842F040522260C26AC1F30C0191
:100D90005160C16A0A6842F000420A60C16AC968CB
:100DA000C16235E0C46AD4F800C02CF0405CC4F8DD
:100DB00000C033B9C46AD4F800C04CF0805CC4F8F9
:100DC00000C0C46A6560541EA34214D1C46AD4F83A
:100DD00000C04CF0005CC4F800C0C2F10104C4EBD8
:100DE000C41404EB440401EB8404D0F82CC0C4F315
:100DF0000C04CCF80440C46AD4F800C04CF0004C99
:100E0000C4F800C0C46AE468C4625B1C9342C9D3DE
:100E1000016801F580514A69520705D504224A61EB
:100E2000016801F580514E6000F8447F4670002053
:100E3000F0BD70472DE9F041044694F84400422883
:100E400020D0422084F844002068036903F01C038A
:100E5000258A4FF6FF7606EAC5251D434FF4F86351
:100E600003EA8111294341F0020141F0010591B2E9
:100E700041612068056100F07FF9064601274FF4C3
:100E800080380FE00220BDE8F08100F075F9801B8A
:100E9000404505D304F8447F002060700320F2E74A
:100EA00020680569E807F0D184F84470EBE700009A
:100EB0000348016841F000410160002070470000D4
:100EC000103C02402DE9F0470646894614461D466F
:100ED000194F387E012808D0012038764CF250385E
:100EE0004046FEF703FB18B114E00220BDE8F0878E
:100EF0009EB1012E16D0022E19D022462B4648460E
:100F0000FEF786FA4046FEF7F1FA0C490A6822F02D
:100F100001020A6000213976E8E7E1B24846FEF7AF
:100F200067FAEFE7A1B24846FEF786FAEAE72146FC
:100F30004846FEF793FAE5E7E04B0120103C0240FB
:100F400006480068002807DA044805490C380160A3
:100F5000044901600020704701207047103C0240A6
:100F600023016745AB89EFCDB0F5007F05D103487C
:100F70000068002801D012F0DBB870477000002034
:100F800010B504490A68024202D00860FFF7ECFF7E
:100F900010BD0000143C01402DE9F84F0022DFF89D
:100FA0009091DFF88C8109F108094FF0010E4FF0A4
:100FB0000F0C09F1040A0EFA02F60B683340B34233
:100FC00071D14C68022C01D0122C11D1D40800EB45
:100FD00084073D6A5407E40E0CFA04FB25EA0B056E
:100FE000D1F810B00BFA04FB4BEA050BC7F820B0A0
:100FF000076854000325A540AF4391F804B00BF0F7
:10100000030B0BFA04FB4BEA070BC0F800B04F6868
:10101000012F05D0022F03D0112F01D0122F11D193
:101020008768AF43D1F80CB00BFA04FB4BEA070B0F
:10103000C0F808B04768B7430E79C6F3001696406B
:101040003E434660C668AE438D68A5403543C560E3
:101050004C68E40065D5374C256845F4804525602B
:10106000246804F480440094334C22F003052544A2
:10107000D5F808789407260F0CFA06F4A7432F4CEE
:10108000A04201D1002424E02D4CA04201D1012432
:101090001FE02C4CA04201D102241AE02A4CA042AD
:1010A00002D1032415E03CE0284CA04201D10424E5
:1010B0000FE0274CA04201D105240AE0254CA042B4
:1010C00001D1062405E0244CA04201D1072400E010
:1010D0000824B4403C43C5F80848D8F800409C4375
:1010E0004D68ED0300D51C43C8F80040104D2D1D80
:1010F0002C689C434E68B60300D51C432C60D9F87D
:1011000000409C434D68ED0200D51C43C9F80040E7
:10111000DAF800409C434D68AD0200D51C43CAF884
:101120000040521C102AFFF446AFBDE8F88F0000C3
:10113000003C0140443802400030014000000240C1
:101140000004024000080240000C0240001002406F
:101150000014024000180240001C024000690842CE
:1011600001D00120704700207047002A01D0816122
:1011700070470904816170470148006870470000AA
:10118000F4010020D0F8940209F0DEBAD0F89402FD
:1011900009F0F7BAD0F8940209F01DBB2DE9F0412F
:1011A000044626680025304609F096FB01287DD1CB
:1011B000206809F05CFC002878D0206809F057FC12
:1011C000800203D521684FF400104861206809F0BF
:1011D0004EFCC00203D521684FF48010486120689E
:1011E00009F045FC400103D521684FF0806048615B
:1011F000206809F03CFC800702D521680220486184
:10120000206809F034FC800010D5D6F8400420F0A6
:101210002E00C6F840042046FFF7B8FF01212068E1
:1012200009F008FC21684FF000504861206809F07F
:101230001EFCC00102D5204602F0B1F8206809F07A
:1012400016FC000705D5204600F040F8216808206C
:101250004861206809F00BFC800121D5206809F065
:10126000E3FB07464FF0010813E008FA05F03842A7
:101270000ED006EB4510D0F80005000404D5E9B205
:10128000204601F071FE03E0E9B2204601F082FF42
:101290006D1CA068A842E8D821684FF00070486132
:1012A000206809F0E4FBC0060ED500E00CE02068E1
:1012B000816921F010018161204602F0CDF820689B
:1012C000816941F010018161BDE8F081D0F894029C
:1012D00009F07ABA10B5044694F8900201280DD0AE
:1012E000012084F89002206809F0CDFA01212068DD
:1012F00009F0ACFA002084F8900210BD022010BD65
:1013000010B5044694F89002012809D0012084F811
:101310009002206809F0BFFB002084F8900210BD05
:10132000022010BD70B50446002C11D021684CF687
:10133000CC400860216845F255500860D4E900109F
:1013400048602168A0688860FFF716FF054608E03E
:10135000012070BDFFF710FF401B302801D903208A
:1013600070BD2068C0680028F4D121684AF6AA2020
:101370000860002070BD00684AF6AA2101600020C4
:101380007047000002480168491C01607047000076
:10139000F401002010B50B48016841F400710160B0
:1013A000016841F480610160016841F4807101606D
:1013B000032000F07FF80F2000F006F800F018F886
:1013C000002010BD003C024010B5044607484FF411
:1013D0007A720068B0FBF2F001F0A0FA0022214618
:1013E000501E00F047F8002010BD0000F80100205A
:1013F00010B5032000F05EF8002211466FF00B00DC
:1014000000F038F8002211466FF00A0000F032F8C0
:10141000002211466FF0090000F02CF8002211465E
:10142000501F00F027F800221146101F00F022F88C
:1014300000220F21901E00F01DF800220F21BDE8B0
:101440001040501E00F016B800F01F02012191401C
:101450004009800000F1E020C0F88011704700F0E2
:101460001F02012191404009800000F1E020C0F8F6
:1014700000117047F0B40D460D4B1B68C3F30223F7
:10148000C3F10704042C00D90424191D072901D233
:10149000002300E0DB1E012606FA04F1491E294064
:1014A00099409E40761E16403143F0BC04F01CBFAC
:1014B0000CED00E000F00701054A10684FF6FF034D
:1014C000184040EA012003490843106070470000BB
:1014D0000CED00E00000FA052DE9F84304464FF05A
:1014E000010820684FF00007C10701D1400737D538
:1014F000DFF83091C9F86870FFF73EFE06464A4DA6
:1015000007E0FFF739FE801B022802D90320BDE85F
:10151000F88328680001F4D447F6C07191FAA1F16C
:101520006068B1FA81F188404FF0E04292FAA2F28D
:10153000A168B2FA82F2914008433B4984310860C5
:10154000C9F86880FFF718FE064606E0FFF714FEAC
:10155000801B022801D90320D9E728680001F5D5AE
:101560002078800753D530484030016841F08051E1
:101570000160006800F0805000902C4D286840F415
:1015800080702860FFF7F8FD064606E0FFF7F4FDDF
:10159000801B022801D90320B9E72868C005F5D5CA
:1015A000214D7035286800F44070F8B1A18901F42C
:1015B000407181421AD0286820F440701C49C1F85B
:1015C00000800F6028602868C0070FD0FFF7D4FDA7
:1015D000074641F2883606E0FFF7CEFDC01BB04259
:1015E00001D9032093E728688007F5D5E0680E4904
:1015F000C0F301220831032A0BD0086820F4F81048
:1016000008602868A189C1F30B0108432860002005
:101610007DE70A68074B22F4F812184002430A607B
:10162000EFE7000000004742003802400070004031
:10163000400E4742FFFCFF0F2DE9F04704460E46DF
:10164000DFF86891D9F8000006F0FF0800F00F00FD
:10165000B0420AD289F80080D9F8000000F00F00EB
:10166000B04202D00120BDE8F0872078504F8007BB
:1016700005D53868A16820F0F0000843386020786C
:10168000C0075BD04A4960680839012808D00228A1
:101690000BD0032809D0096889070BD40120E2E7A1
:1016A0000968890306D40120DDE70968890101D4AE
:1016B0000120D8E7396821F0030101433960FFF7C1
:1016C0005BFD0546606841F2883A01280BD002288C
:1016D00016D0032821D02DE0FFF74EFD401B5045CA
:1016E00001D90320BFE73868C0F381000128F3D196
:1016F00024E0FFF741FD401B504501D90320B2E72C
:101700003868C0F381000228F3D117E0FFF734FDF9
:10171000401B504501D90320A5E73868C0F381007C
:101720000328F3D10AE0FFF727FD401B504501D9FC
:10173000032098E7386810F00C0FF4D1D9F80000B6
:1017400000F00F00B04209D989F80080D9F80000F4
:1017500000F00F00B04201D0012084E7207840075C
:1017600005D53868E16820F4E050084338602078F7
:10177000000706D53868216920F4604040EAC100BE
:10178000386000F04DF83968F02292FAA2F201F0C8
:10179000F001B2FA82F2D140064A515CC8400649D3
:1017A00008600F20FFF710FE00205CE7003C0240BD
:1017B00008380240A48A0208F801002001480068A5
:1017C00070470000F801002000B5FFF7F7FF074958
:1017D00009684FF4E05292FAA2F201F4E051B2FA31
:1017E00082F2D140024A515CC84000BD0838024034
:1017F000B48A020800B5FFF7E1FF074909684FF412
:10180000604292FAA2F201F46041B2FA82F2D1404F
:10181000024A515CC84000BD08380240B48A020840
:1018200030B51D48006810F00C011C481AD01C4C43
:10183000042916D0082915D1174A121F116801F082
:101840003F0113685D0247F6C0730CD5B4FBF1F09D
:101850001168194093FAA3F3B3FA83F3D9404843CC
:101860000BE0204630BDB0FBF1F01168194093FA4F
:10187000A3F3B3FA83F3D940484311684FF44032DD
:1018800092FAA2F201F44031B2FA82F2D140491C3C
:101890004900B0FBF1F030BD083802400024F400EC
:1018A00040787D012DE9F84F0446DFF874832078F5
:1018B000A8F10407C007A7F1040552D0D8F800002A
:1018C000C0F38100012808D0D8F80000C0F38100DF
:1018D00002280AD13868400207D52868800340D51D
:1018E000606878BB0120BDE8F88F6068B0F5803F84
:1018F00010D0B0F5A02F12D0286820F480302860D6
:10190000286820F4802028606068E0B1FFF734FC8C
:10191000064614E0286840F480302860F4E7286820
:1019200040F480202860286840F480302860EBE78D
:10193000FFF722FC801B642801D90320D3E7286825
:101940008003F5D50DE0FFF717FC064606E0FFF72C
:1019500013FC801B642801D90320C4E72868800396
:10196000F5D42078DFF8BC9280074FF0000A52D5FA
:10197000D8F800004FF0F80B10F00C0F08D0D8F892
:101980000000C0F38100022816D13868400213D449
:101990002868800704D5E068012801D00120A2E76B
:1019A00028689BFAABF22169B2FA82F220F0F800C3
:1019B0009140084328602EE0E068E0B10120C9F8BA
:1019C0000000FFF7D9FB064606E0FFF7D5FB801BBA
:1019D000022801D9032086E728688007F5D5286802
:1019E0009BFAABF22169B2FA82F220F0F800914042
:1019F000084328600FE0C9F800A0FFF7BDFB0646CA
:101A000006E0FFF7B9FB801B022801D903206AE733
:101A100028688007F5D42078000729D5DFF800B2C0
:101A2000814861690BF16C0B89B101210160FFF7FD
:101A3000A3FB064606E0FFF79FFB801B022801D9A7
:101A4000032050E7DBF800008007F4D510E0C0F871
:101A500000A0FFF791FB064606E0FFF78DFB801B19
:101A6000022801D903203EE7DBF800008007F4D408
:101A7000207840076ED56A483830016841F08051BF
:101A80000160006800F080500090DFF8A0B1DBF842
:101A9000000040F48070CBF80000FFF76DFB0646B5
:101AA00006E0FFF769FB801B022801D903201AE733
:101AB000DBF80000C005F4D5DFF864B1A0680BF1D5
:101AC000680B012813D0052818D0DBF8000020F09F
